:1000000000000420190200000102000003020000A9
:1000100005020000070200000902000000000000C5
:100020000000000000000000000000000B020000C3
:100030000D020000000000000F020000110200008D
:100040001302000013020000ED1B0000E11E00007F
:100050001302000013020000E51A00001302000062
:10006000130200001302000013020000130200003C
:10007000130200001302000013020000130200002C
:1000800013020000B13A0000130200001302000046
:10009000130200001302000013020000130200000C
:1000A00013020000130200001302000013020000FC
:1000B0001302000013020000000000000000000016
:1000C00013020000130200001302000013020000DC
:1000D00013020000130200001302000013020000CC
:1000E00013020000130200001302000000000000D1
:1000F00000000000130200000000000013020000D6
:1001000000000000000000000000000000000000EF
:1001100000000000000000000000000000000000DF
:1001200000000000000000000000000000000000CF
:1001300000000000000000000000000000000000BF
:1001400000000000000000000000000000000000AF
:10015000000000000000000000000000000000009F
:10016000000000000000000000000000000000008F
:10017000000000000000000000000000000000007F
:10018000000000000000000000000000000000006F
:10019000000000000000000000000000000000005F
:1001A000000000000000000000000000000000004F
:1001B000000000000000000000000000000000003F
:1001C000000000000000000000000000000000002F
:1001D000000000000000000000000000000000001F
:1001E000000000000000000000000000000000000F
:1001F00000000000000000000000000000000000FF
:10020000FEE7FEE7FEE7FEE7FEE7FEE7FEE7FEE7C6
:10021000FEE7FEE700F002B8FFF7FCBF0F484FF023
:100220000701884385460E4880470E48016841F41F
:1002300070010160BFF34F8FBFF36F8F00F01AB8EA
:1002400009480A490A4A884207D0521A05D0037859
:1002500001300B700131013AF9D1704700000420E0
:10026000DD12000088ED00E0705C0000000000205E
:1002700000000020344935480A1A02D00722914371
:100280008D46334933480A1A06D00722914381F339
:100290000988022282F314882F483049304A00F03E
:1002A00041F830483049314A00F03CF83048314993
:1002B000314A00F037F831483149324A00F032F81B
:1002C00031483249324A00F02DF832483249334A37
:1002D00000F028F832483349334A00F023F8334815
:1002E0003349002200F029F832483349002200F057
:1002F00024F832483249091A05F07AFC314A90470D
:100300001F482049884205D00268043003B4904752
:1003100003BCF7E700208646EC46002000212A4A6D
:100320009047FEE7884207D0521A05D00378013083
:100330000B700131013AF9D17047884202D0027046
:100340000130FAE7704700000000042000E00320BD
:10035000000004200000042044BB00000000002036
:1003600070000020CC030000CC030000045C0000FF
:1003700044BB00000000002000000020705C000072
:10038000705C0000705C0000705C0000705C00003D
:10039000705C0000705C0000705C000041BB0000FD
:1003A000B4BB00007000002070000020700000202E
:1003B000E0320120E0320120E0320120E032012071
:0C03C000E052012041020000090500008D
:1003CC0000B585B00190019B002B0AD0074B43F080
:1003DC0001030393019B9B010293039B0298984793
:1003EC0000E000BF05B05DF804FB00BFA0A7000053
:1003FC0000B583B00190019B002B0AD04FF47A70AA
:10040C00FFF7DEFF019B013B0193019B002BF5D114
:10041C0000E000BF03B05DF804FB000000B583B042
:10042C000190019B1B68184600F040F80346002B16
:10043C0004D10B494FF4F67003F042FB019B1B688F
:10044C001F2B02D84FF0A04306E0019B1B6803F062
:10045C001F02019B1A60034B184603B05DF804FBA6
:10046C00705C00000003005000B585B0019001AB3A
:10047C001846FFF7D3FF0390039BD3F80435029380
:10048C00029BDA43019B012101FA03F31A40039BFF
:10049C00C3F80825019B01229A40029B1A40039B3A
:1004AC00C3F80C2500BF05B05DF804FB84B00190C7
:1004BC00019B5B09029300230393029B002B03D047
:1004CC00029B012B04D007E04FF0FF33039303E0B2
:1004DC004FF6FF73039300BF019B03F01F030193BF
:1004EC00039A019B22FA03F303F00103002B14BFC0
:1004FC0001230023DBB2184604B0704708B5012075
:10050C0000F070F900F07DFA00F0A8FA0D20FFF76A
:10051C00ABFF00220021074800F018FC00F034FB70
:10052C004FF47A70FFF764FF4FF47A70FFF760FFB7
:10053C00ECE700BF905C000000B583B00190019B1C
:10054C001B68184600F0C3F80346002B04D10B4976
:10055C004FF4F67003F0B4FA019B1B681F2B02D802
:10056C004FF0A04306E0019B1B6803F01F02019BA8
:10057C001A60034B184603B05DF804FBA8A70000F3
:10058C000003005000B585B00190084611461A468C
:10059C0003468DF803300B468DF8023013468DF868
:1005AC00013001AB1846FFF7C7FF03909DF80320FD
:1005BC009DF802305B001A439DF801309B001A43F2
:1005CC009DF818301B0242EA03019DF81C301B04F5
:1005DC00019A1943039B02F5E07243F8221000BF05
:1005EC0005B05DF804FB00B585B0039000230193C2
:1005FC00002300930023012201210398FFF7C2FF7F
:10060C0000BF05B05DF804FB00B585B003900B4648
:10061C008DF80B309DF80B300022019200220092D5
:10062C00002200210398FFF7ADFF00BF05B05DF875
:10063C0004FB00B585B0019001AB1846FFF77CFFB9
:10064C000390019B012202FA03F31946039800F070
:10065C002AF800BF05B05DF804FB00B585B0019029
:10066C0001AB1846FFF768FF0390019B012202FAC9
:10067C0003F31946039800F020F800BF05B05DF8AD
:10068C0004FB00B583B001900091009B002B03D1BB
:10069C000198FFF7E2FF02E00198FFF7CAFF00BFE5
:1006AC0003B05DF804FB82B001900091019B009AAD
:1006BC00C3F8082500BF02B0704782B001900091CA
:1006CC00019B009AC3F80C2500BF02B0704784B0A0
:1006DC000190019B5B09029300230393029B002B67
:1006EC0003D0029B012B04D007E04FF0FF330393A0
:1006FC0003E04FF6FF73039300BF019B03F01F034E
:10070C000193039A019B22FA03F303F00103002BDC
:10071C0014BF01230023DBB2184604B0704700005D
:10072C0000B583B00190019B032B03D907494720E7
:10073C0003F0C6F9064A019B13441B7801211846A5
:10074C00FFF79FFF00BF03B05DF804FBC8A70000D4
:10075C0034A8000000B583B00023019305E0019894
:10076C00FFF7DEFF019B01330193019B032BF6D9AD
:10077C0000BF00BF03B05DF804FB000000B583B000
:10078C000023019309E0094A019B13441B78184686
:10079C00FFF729FF019B01330193019B032BF2D936
:1007AC00FFF7D8FF00BF03B05DF804FB34A80000CE
:1007BC0000B583B0002301930AE0094A019B13445E
:1007CC001B7803211846FFF71FFF019B0133019390
:1007DC00019B032BF1D900BF00BF03B05DF804FBF4
:1007EC0038A8000000B583B00190019B03F0010311
:1007FC00002B01D0FFF7C2FF019B03F00203002B7B
:10080C0001D0FFF7D5FF00BF03B05DF804FB00007B
:10081C0000B585B00190019B002B0AD0074B43F02B
:10082C0001030393019B9B010293039B029898473E
:10083C0000E000BF05B05DF804FB00BF00A900009C
:10084C0000B583B00190019B1B68184600F09CF822
:10085C000346002B04D10B494FF4F67003F030F92A
:10086C00019B1B681F2B02D84FF0A04306E0019B95
:10087C001B6803F01F02019B1A60034B184603B060
:10088C005DF804FB5CA800000003005000B585B0C7
:10089C000190084611461A4603468DF803300B4664
:1008AC008DF8023013468DF8013001AB1846FFF776
:1008BC00C7FF03909DF803209DF802305B001A439C
:1008CC009DF801309B001A439DF818301B0242EA38
:1008DC0003019DF81C301B04019A1943039B02F57C
:1008EC00E07243F8221000BF05B05DF804FB00B5C0
:1008FC0085B0039000230193002300930023012271
:10090C0001210398FFF7C2FF00BF05B05DF804FB9F
:10091C0000B585B0019001AB1846FFF791FF03902D
:10092C00019B012202FA03F31946039800F018F810
:10093C0000BF05B05DF804FB00B585B0019001ABBC
:10094C001846FFF77DFF0390019B012202FA03F387
:10095C001946039800F00EF800BF05B05DF804FBD3
:10096C0082B001900091019B009AC3F8082500BF4A
:10097C0002B0704782B001900091019B009AC3F8BD
:10098C000C2500BF02B0704784B00190019B5B093D
:10099C00029300230393029B002B03D0029B012B99
:1009AC0004D007E04FF0FF33039303E04FF6FF73DF
:1009BC00039300BF019B03F01F030193039A019B58
:1009CC0022FA03F303F00103002B14BF01230023CD
:1009DC00DBB2184604B0704700B583B00190019BA0
:1009EC00002B0AD04FF47A70FFF712FF019B013BEA
:1009FC000193019B002BF5D100E000BF03B05DF823
:100A0C0004FB08B51F20FFF772FF1E20FFF76FFFD6
:100A1C001D20FFF76CFF1C20FFF769FF0420FFF778
:100A2C0066FF0320FFF763FF2120FFF760FF222002
:100A3C00FFF75DFF2320FFF75AFF2420FFF757FF36
:100A4C002520FFF754FF2620FFF751FF2720FFF743
:100A5C004EFF2820FFF74BFF00BF08BD00B5A1B02B
:100A6C00274A6B4611467A22184605F089F81F2052
:100A7C00FFF74EFF1E20FFF74BFF1C20FFF748FF30
:100A8C000320FFF745FF1D20FFF742FF0420FFF76F
:100A9C003FFF1F20FFF73CFF0120FFF79DFF1F20AA
:100AAC00FFF74AFF0120FFF797FF1F20FFF730FFEA
:100ABC007820FFF791FF00231F9312E01F9B5B0030
:100ACC0080336B4413F8802C1F9B5B0080336B448A
:100ADC0013F87F3C1946104600F014F81F9B0133A5
:100AEC001F931F9B3C2BE9D97820FFF775FF292119
:100AFC00002000F007F800BF21B05DF804FB00BF38
:100B0C007CA8000082B003460A468DF807301346D5
:100B1C008DF806309DF80730012B06D14FF0A0431D
:100B2C004FF08052C3F8082505E04FF0A0434FF07A
:100B3C008052C3F80C254FF0A0434FF00052C3F87D
:100B4C000C254FF0A0431022C3F80C250D4BD3F805
:100B5C00043523F4FF739DF8062052001146094A10
:100B6C000B43C2F804354FF0A0431022C3F80825FC
:100B7C004FF0A0434FF00052C3F8082500BF02B05D
:100B8C00704700BF0003005082B04FF0A0434FF0FD
:100B9C008052C3F80C254FF0A0434FF00052C3F81D
:100BAC000C254FF0A0431022C3F80C252D4B5822D6
:100BBC00C3F808252B4B4FF4D372C3F80C254FF018
:100BCC00A0431022C3F808254FF0A0434FF08052E9
:100BDC00C3F808250023019337E04FF0A0431022FF
:100BEC00C3F80C251F4BD3F8043523F4FF731E49AF
:100BFC00019A31F81220120A92B252001146194A87
:100C0C000B43C2F804354FF0A0431022C3F808255B
:100C1C004FF0A0431022C3F80C25124BD3F8043527
:100C2C0023F4FF721049019B31F813305B0003F47D
:100C3C00FF730C491343C1F804354FF0A043102245
:100C4C00C3F80825019B01330193019BB3F5164FA3
:100C5C00C3D34FF0A0434FF00052C3F8082500BF98
:100C6C0002B07047000300507000002084B0019067
:100C7C000091284A02AB92E8030083E80300009B32
:100C8C0003F00303032B41D801A252F823F000BF59
:100C9C00AD0C0000C70C0000E30C0000FF0C0000C2
:100CAC00009B9B08019A13441B789B09DBB25B00E9
:100CBC0010336B4433F8083C29E0009B9B08019AE5
:100CCC0013441B781B1103F003035B0010336B44BC
:100CDC0033F8083C1BE0009B9B08019A13441B78DB
:100CEC009B1003F003035B0010336B4433F8083C98
:100CFC000DE0009B9B08019A13441B7803F003033F
:100D0C005B0010336B4433F8083C00E000231846BA
:100D1C0004B07047F8A8000082B001900091009BCD
:100D2C0003F00103002B07D1009B5B08019A1344CD
:100D3C001B781B09DBB206E0009B5B08019A13448D
:100D4C001B7803F00F03184602B0704710B590B033
:100D5C00039002910192019A13469B0013445B018C
:100D6C001A46029B13440F9300230E93039B5B685C
:100D7C000D93039B5A6813469B0013445B011A4660
:100D8C000F9B1344039A1268134406930023059394
:100D9C00029B9F2B00F2B980019BEF2B00F2B580D8
:100DAC00069BB3F5164F0AD9069BA3F51643584A72
:100DBC00A2FB0323DB090D9AD31A013B0D93039B72
:100DCC001B7A042B50D100230C9328E000230B93A7
:100DDC0015E0039B03F109000E9B5A1C0E92194659
:100DEC00FFF79AFF01460F9B5A1C0F92494A32F8A3
:100DFC001110494A22F813100B9B01330B93039BE0
:100E0C001B681A460B9B9342E3D3039B1B681A4641
:100E1C000F9B9B1AA0330F930C9B01330C930C9AD2
:100E2C000D9B9A42D2D3059B002B6FD00F9B0A933C
:100E3C0015E0039B03F109000E9B5A1C0E921946F8
:100E4C00FFF76AFF01460F9B5A1C0F92314A32F88A
:100E5C001110314A22F813100A9B01330A930A9B92
:100E6C00B3F5164FE5D351E0039B1B7A022B4DD102
:100E7C000023099326E00023089313E0039B03F15E
:100E8C0009000E9B5A1C0E920F9C621C0F92194665
:100E9C00FFF7ECFE03461A461F4B23F81420089B61
:100EAC0001330893039B1B681A46089B9342E5D3B6
:100EBC00039B1B681A460F9B9B1AA0330F93099B2D
:100ECC0001330993099A0D9B9A42D4D3059B002BAD
:100EDC001CD00F9B079313E0039B03F109000E9B9F
:100EEC005A1C0E920F9C621C0F921946FFF7BEFE05
:100EFC0003461A46084B23F81420079B013307932B
:100F0C00079BB3F5164FE7D300E000BF10B010BD40
:100F1C00CDCCCCCC3CA8000070000020BFF34F8F90
:100F2C0000BF064BDB6803F4E0620449044B134337
:100F3C00CB60BFF34F8F00BF00BFFDE700ED00E0BB
:100F4C000400FA0582B0164B1B680193154B1B6805
:100F5C000093019B082B1FD1009B052B1AD801A2D3
:100F6C0052F823F0890F00008D0F0000910F000044
:100F7C00950F0000990F00009D0F000001230CE05D
:100F8C0001230AE0012308E0012306E0012304E029
:100F9C00012302E0012300E00023184602B0704751
:100FAC00300100103401001082B0164B1B68019305
:100FBC00154B1B680093019B082B1FD1009B052B25
:100FCC001AD801A252F823F0ED0F0000F10F000027
:100FDC00F50F0000F90F0000FD0F000001100000DC
:100FEC0001230CE001230AE0012308E0012306E0C1
:100FFC00012304E0012302E0012300E00023184652
:10100C0002B07047300100103401001082B0164B52
:10101C001B680193154B1B680093019B082B1FD178
:10102C00009B052B1AD801A252F823F05110000096
:10103C0055100000591000005D10000061100000F8
:10104C006510000001230CE000230AE0002308E0F7
:10105C00002306E0002304E0002302E0002300E06C
:10106C000023184602B07047300100103401001004
:10107C0082B0164B1B680193154B1B680093019BA8
:10108C00082B1FD1009B052B1AD801A252F823F074
:10109C00B5100000B9100000BD100000C110000018
:1010AC00C5100000C910000001230CE000230AE069
:1010BC00002308E0002306E0002304E0002302E004
:1010CC00002300E00023184602B0704730010010E6
:1010DC003401001082B0164B1B680193154B1B6832
:1010EC000093019B082B1FD1009B052B1AD801A242
:1010FC0052F823F0191100001D11000021110000FD
:10110C0025110000291100002D11000001230CE015
:10111C0000230AE0002308E0002306E0002304E09B
:10112C00002302E0002300E00023184602B07047C1
:10113C00300100103401001082B0164B1B68019373
:10114C00154B1B680093019B082B1FD1009B052B93
:10115C001AD801A252F823F07D1100008111000071
:10116C0085110000891100008D1100009111000003
:10117C0001230CE000230AE0002308E0002306E032
:10118C00002304E0002302E0002300E000231846C3
:10119C0002B07047300100103401001082B0164BC1
:1011AC001B680193154B1B680093019B082B1FD1E7
:1011BC00009B052B1AD801A252F823F0E111000074
:1011CC00E5110000E9110000ED110000F111000023
:1011DC00F511000001230CE001230AE0012308E0D3
:1011EC00012306E0012304E0012302E0012300E0D7
:1011FC000023184602B07047300100103401001073
:10120C0082B0164B1B680193154B1B680093019B16
:10121C00082B1FD1009B052B1AD801A252F823F0E2
:10122C0045120000491200004D120000511200003E
:10123C00551200005912000000230CE000230AE0B4
:10124C00002308E0002306E0012304E0012302E070
:10125C00012300E00023184602B070473001001053
:10126C003401001008B5FFF7CBFF0346002B07D065
:10127C004FF010234FF08042D3F80832C2F85835A3
:10128C0000BF08BD00BF044BD3F80034002BFAD0CC
:10129C0000BF00BF704700BF00E0014000B583B045
:1012AC000190054A019BC2F80435FFF7EBFF00BF24
:1012BC0003B05DF804FB00BF00E00140024B034AA1
:1012CC001A6000BF704700BF000000200090D003E0
:1012DC0008B5FFF737FE0346002B0ED04FF08043C6
:1012EC000022C3F80C214FF080430022C3F81021D8
:1012FC004FF080430022C3F83825FFF755FE034614
:10130C00002B76D04FF08053734AD3F80434C2F8D4
:10131C0020354FF08053704AD3F80834C2F8243586
:10132C004FF080536C4AD3F80C34C2F828354FF088
:10133C008053694AD3F81034C2F82C354FF08053DF
:10134C00654AD3F81434C2F830354FF08053624AF2
:10135C00D3F81834C2F834354FF080535E4AD3F8C2
:10136C001C34C2F840354FF080535B4AD3F820341C
:10137C00C2F844354FF08053574AD3F82434C2F89E
:10138C0048354FF08053544AD3F82834C2F84C35C2
:10139C004FF08053504AD3F82C34C2F850354FF0EC
:1013AC0080534D4AD3F83034C2F854354FF0805343
:1013BC00494AD3F83434C2F860354FF08053464A6A
:1013CC00D3F83834C2F864354FF08053424AD3F81E
:1013DC003C34C2F868354FF080533F4AD3F8403460
:1013EC00C2F86C354FF080533B4AD3F84434C2F802
:1013FC007035FFF70BFE0346002B02D0374B384AF3
:10140C001A60FFF735FE0346002B03D0354BFB2249
:10141C00C3F81825FFF75EFE0346002B0AD0324BAB
:10142C001B6823F00F02314B1B6803F00F032E498E
:10143C0013430B60FFF780FE0346002B03D02C4BAD
:10144C004FF400721A60FFF7A9FE0346002B0DD073
:10145C004FF08043D3F8003403F00103002B05D088
:10146C004FF080436FF00102C3F80024214BD3F8F6
:10147C008830204A43F47003C2F88830BFF34F8F92
:10148C0000BFBFF36F8F00BFFFF7ECFE4FF01023D0
:10149C00D3F80032002B05DB4FF01023D3F80432C5
:1014AC00002B15DA0120FFF7F9FE4FF01023122262
:1014BC00C3F80022FFF7E6FE4FF010231222C3F808
:1014CC000422FFF7DFFE0020FFF7E8FEFFF726FD02
:1014DC00FFF7F4FE00BF08BD00C000408C56004072
:1014EC004881030000F00040E40E00405802001058
:1014FC004096024000ED00E000B589B001900091EB
:10150C00009B0793019B1B788DF80C30019B5B684B
:10151C000493019B9B68DBB28DF81430019BDB6854
:10152C000693074A079B52F823300649079A51F84D
:10153C00221003AA1046984700BF09B05DF804FBBF
:10154C00702C0120782C012000B589B001900091FD
:10155C00009B0793019B1B788DF80C30019B5B68FB
:10156C000493019B9B68DBB28DF81430019BDB6804
:10157C000693074A079B52F823300649079A51F8FD
:10158C00221003AA1046984700BF09B05DF804FB6F
:10159C00702C0120782C012030B58FB00390029173
:1015AC000192039B1B780C932C490C9B019A41F8DC
:1015BC002320029B1A692A490C9B41F823200C9B7F
:1015CC00012B07D1029B5B7F002B03D12549762091
:1015DC0002F076FA029B5B7F1946234A0C9B13445C
:1015EC000A461A70029B04AC1D460FCD0FC495E839
:1015FC000F0084E80F000C9B089300230D93039BB2
:10160C001B781A46184B9B5C002B0DD0039B181DA6
:10161C00019B002B01D0154A00E0002204AB1946B7
:10162C0001F05CFE0D9014E0039B1B781A460E4BE8
:10163C009B5C002B0DD1039B03F10C00019B002B39
:10164C0001D00B4A00E0002204AB194600F0CAFF9F
:10165C000D900D9B18460FB030BD00BF702C0120B3
:10166C00782C012008A90000802C01200515000011
:10167C005515000000B583B00346ADF80630BDF833
:10168C000630184600F026F803461B68012B0CBFE9
:10169C0001230023DBB2184603B05DF804FB00B550
:1016AC0085B00346ADF80630BDF80630184600F09C
:1016BC0011F803461A4600231360BDF8063018468D
:1016CC0000F008F803461B680393039B00BF05B0AA
:1016DC005DF804FB82B00346ADF80630BDF8063069
:1016EC0003F1804303F5C043184602B07047000075
:1016FC0082B00190034BD3F80423019B134018468E
:10170C0002B070470060004082B00190054A019B16
:10171C0003F5A27352F823301B0A03F03F0318465B
:10172C0002B070470060004082B00190064A019BF5
:10173C0003F5A27352F823301B0C03F00303DBB246
:10174C00184602B0704700BF0060004000B583B07F
:10175C000190019B1B68184600F0AAF80346002B69
:10176C0004D10B494FF4F67002F0AAF9019B1B68E7
:10177C001F2B02D84FF0A04306E0019B1B6803F01F
:10178C001F02019B1A60034B184603B05DF804FB63
:10179C00A0A900000003005000B585B001900B46D5
:1017AC008DF8033001AB1846FFF7D0FF0390019A78
:1017BC00039B02F5E07253F82230019A23F4403176
:1017CC00039B02F5E07243F82210019A039B02F589
:1017DC00E07253F822309DF8032012041146019A4E
:1017EC001943039B02F5E07243F8221000BF05B0C9
:1017FC005DF804FB00B585B0019001AB1846FFF70E
:10180C00A5FF0390019A039B02F5E07253F8223076
:10181C001B0C03F00303DBB2184605B05DF804FBA8
:10182C0088B0039002910192164A05AB92E803002E
:10183C0083E80300039B079319E0079B9B0020336D
:10184C006B4453F80C3CD3F82025019B1A60079B82
:10185C009B0020336B4453F80C3C019A1268C3F87C
:10186C002025019B04330193079B01330793039AB3
:10187C00029B1344079A9A42DFD300BF00BF08B003
:10188C00704700BFC0A9000000B585B0019001AB46
:10189C001846FFF75BFF0390019B012202FA03F34A
:1018AC001A46039BC3F8202500BF05B05DF804FB66
:1018BC0084B00190019B5B09029300230393029B6C
:1018CC00002B03D0029B012B04D007E04FF0FF3319
:1018DC00039303E04FF6FF73039300BF019B03F0E8
:1018EC001F030193039A019B22FA03F303F00103F4
:1018FC00002B14BF01230023DBB2184604B0704741
:10190C0084B001900091009B0393019BDB08029330
:10191C00019B03F0070301930122019B02FA03F3DD
:10192C000399029A0A4412781340184604B070477F
:10193C0082B00190044A019B1344303393F9003078
:10194C00184602B0704700BF842C012082B0019071
:10195C00034A019B52F82330184602B0704700BF6F
:10196C00842C012084B00190074A019B13446033FE
:10197C0093F900308DF80F309DF80F3023F0C00331
:10198C00184604B0704700BF842C012084B001902D
:10199C00074A019B1344603393F900308DF80F30E4
:1019AC009DF80F309B09DBB2184604B0704700BF9E
:1019BC00842C012000B585B00190019A02210020F1
:1019CC00FFF72EFF002303930BE0039B9B00019A70
:1019DC0013441B68002B01D0012306E0039B013349
:1019EC000393039B012BF0D90023184605B05DF837
:1019FC0004FB000000B587B00190002305935BE069
:101A0C00344A059B1344603393F90030B3F1FF3F24
:101A1C004ED00598FFF7A6FF049001990498FFF7A4
:101A2C006FFF0346002B44D00598FFF7AFFF03462A
:101A3C008DF80F300498FFF7DDFE03468DF80E305D
:101A4C009DF80E30022B01D1032300E002238DF808
:101A5C000D309DF80D3019460498FFF79DFE049843
:101A6C00FFF712FF0498FFF763FF03461846FFF7D2
:101A7C006DFF0290029B002B1BD09DF80F30032BA7
:101A8C000FD09DF80E30022B03D19DF80F30012B97
:101A9C0007D09DF80E30032B0BD19DF80F30022B85
:101AAC0007D19DF80F20029B11460498984700E03F
:101ABC0000BF059B01330593059B032BA0D901980F
:101ACC00FFF778FF0346002B97D100BF00BF07B08C
:101ADC005DF804FB842C012000B58BB00023089327
:101AEC0001AB00221A605A604FF48073ADF81A30C3
:101AFC00012309930023079321E0BDF81A301846FF
:101B0C00FFF7B8FD0346002B0ED00998FFF7F0FD48
:101B1C000346002B08D0BDF81A301846FFF7BFFD5E
:101B2C00089A099B13430893099B5B000993BDF822
:101B3C001A300433ADF81A30079B01330793079B17
:101B4C00072BDAD94FF4BE70FFF794FD0346002B38
:101B5C000DD04FF4BE70FFF7A2FD089B43F000437D
:101B6C00089301AB1A4602210020FFF759FE089B8F
:101B7C00DBB2002B29D0012309930023079321E02A
:101B8C00099A089B1340002B16D00798FFF7BCFD51
:101B9C0005900798FFF7C8FD03468DF8133007989A
:101BAC00FFF7D4FE0390039B002B05D09DF8132068
:101BBC00039B114605989847099B5B000993079B6B
:101BCC0001330793079B072BDAD9089B002B03DA09
:101BDC0001AB1846FFF70EFF00BF0BB05DF804FB1E
:101BEC0008B5064B1B68002B03D10549512001F0A9
:101BFC0067FF024B1B68984708BD00BFF02C012003
:101C0C004CAA000082B00190019B044A934201D17E
:101C1C00034B00E00023184602B070470020004040
:101C2C00F02C012000B587B001900091019B002B96
:101C3C0003D11849772001F043FF0198FFF7E2FF29
:101C4C000590059B002B1ED000238DF8133000202F
:101C5C0001F0E0FE059B1B79002B03D001238DF8CE
:101C6C00133005E0059B009A1A60059B01221A713E
:101C7C00002001F0E3FE9DF81330002B03D011235C
:101C8C000393039B02E000230393039B184607B0C6
:101C9C005DF804FB4CAA000000B585B00190019BD7
:101CAC00002B03D10A499B2001F00AFF0198FFF792
:101CBC00A9FF0390039B002B05D0039B00221A6005
:101CCC00039B00221A7100BF05B05DF804FB00BF36
:101CDC004CAA000084B001900B46ADF80230BDF860
:101CEC000230019A134400221A60BDF80230019AA6
:101CFC0013441B680393039B00BF04B0704782B06E
:101D0C0001900B46ADF80230BDF80230019A134435
:101D1C001B68002B14BF01230023DBB2184602B052
:101D2C007047000000B583B00190019B1B681846FA
:101D3C0000F05AF80346002B04D10B494FF4F6700F
:101D4C0001F0BEFE019B1B681F2B02D84FF0A04375
:101D5C0006E0019B1B6803F01F02019B1A60034BFA
:101D6C00184603B05DF804FBE4AA00000003005021
:101D7C0000B585B0019001AB1846FFF7D3FF039077
:101D8C00019B012202FA03F31946039800F018F89C
:101D9C0000BF05B05DF804FB00B585B0019001AB48
:101DAC001846FFF7BFFF0390019B012202FA03F3D1
:101DBC001946039800F00EF800BF05B05DF804FB5F
:101DCC0082B001900091019B009AC3F8082500BFD6
:101DDC0002B0704782B001900091019B009AC3F849
:101DEC000C2500BF02B0704784B00190019B5B09C9
:101DFC00029300230393029B002B03D0029B012B25
:101E0C0004D007E04FF0FF33039303E04FF6FF736A
:101E1C00039300BF019B03F01F030193039A019BE3
:101E2C0022FA03F303F00103002B14BF0123002358
:101E3C00DBB2184604B0704700B583B00190019B2B
:101E4C00DB7FFF2B0ED0019B9B7F002B05D0019BD2
:101E5C00DB7F1846FFF7A0FF04E0019BDB7F1846F1
:101E6C00FFF786FF019B00225A77019B00221A7212
:101E7C00019B1B68019A02F10800019A52681146F5
:101E8C00984700BF03B05DF804FB000000B583B0B9
:101E9C00019000914FF48C710198FFF730FF0346CD
:101EAC00002B10D04FF48C710198FFF713FF009B9F
:101EBC001B68002B04D1064940F2972001F000FE6C
:101ECC000098FFF7B9FF00BF03B05DF804FB00BF3B
:101EDC000CAB000008B503490348FFF7D7FF00BF60
:101EEC0008BD00BFF82C01200030004082B0034632
:101EFC008DF807309DF90730002B0CDB9DF807306F
:101F0C0003F01F0205499DF907305B09012000FA17
:101F1C0002F241F8232000BF02B0704700E100E05C
:101F2C0082B003468DF807309DF90730002B13DB88
:101F3C009DF8073003F01F0209499DF907305B0932
:101F4C00012000FA02F2203341F82320BFF34F8F17
:101F5C0000BFBFF36F8F00BF00BF02B0704700BF60
:101F6C0000E100E082B0034600918DF807309DF946
:101F7C000730002B0ADB009BDAB20C499DF90730C5
:101F8C005201D2B20B4483F800230BE0009BDAB26F
:101F9C0007499DF8073003F00F03043B5201D2B2FE
:101FAC000B441A7600BF02B0704700BF00E100E09E
:101FBC0000ED00E082B00190019B1B0B5BB2184658
:101FCC0002B0704700B583B003460A468DF807305F
:101FDC0013468DF806309DF80630072B03D90849B7
:101FEC006B2001F06DFD9DF806209DF90730114620
:101FFC001846FFF7B7FF00BF03B05DF804FB00BF46
:10200C0084AB000000B583B003468DF807309DF912
:10201C0007301846FFF76AFF00BF03B05DF804FBFA
:10202C0000B583B003468DF807309DF9073018468C
:10203C00FFF776FF00BF03B05DF804FB84B001909E
:10204C000B46ADF80230BDF80230019A1344002261
:10205C001A60BDF80230019A13441B680393039B6A
:10206C0000BF04B0704782B001900B46ADF802304F
:10207C00BDF80230019A13441B68002B14BF0123D6
:10208C000023DBB2184602B0704782B00190009179
:10209C00019B009AC3F8042300BF02B0704782B0C2
:1020AC0001900091019BD3F80423009B1340002B5B
:1020BC0014BF01230023DBB2184602B0704782B074
:1020CC0001900091019B009AC3F8082300BF02B055
:1020DC00704784B00190019BD3F880340393019B2B
:1020EC00039AC3F88024039B184604B0704782B04F
:1020FC000190019B0422C3F8002500BF02B0704779
:10210C0082B00190019B0022C3F8002500BF02B0F1
:10211C00704784B0039002910192039B019AC3F81B
:10212C001425039B029AC3F80C2500BF04B070471A
:10213C0000B583B001904FF0FF324FF0FF310198A2
:10214C00FFF7E7FF00BF03B05DF804FB82B001901E
:10215C00019BD3F80C35184602B0704782B0019041
:10216C00019BD3F81435184602B0704782B0019029
:10217C00019BD3F80835184602B0704782B0019025
:10218C00019BD3F81035184602B0704784B0039009
:10219C0002910192039B029AC3F80825039B019AB2
:1021AC00C3F8102500BF04B0704700B583B0019090
:1021BC004FF0FF324FF0FF310198FFF7E7FF00BF00
:1021CC0003B05DF804FB82B00190019BD3F8183585
:1021DC00DBB2184602B0704782B001900B468DF806
:1021EC0003309DF80320019BC3F81C2500BF02B0EF
:1021FC00704782B001900B468DF803309DF8033088
:10220C00019A134401221A6000BF02B0704782B0D9
:10221C0001900B468DF8033013468DF802309DF873
:10222C0003209DF802301343DBB21A46019BC3F81E
:10223C006C2500BF02B0704782B001900091019BE9
:10224C00009AC3F8242500BF02B0704700B583B0D4
:10225C000190019B1B68184600F0A4F80346002B64
:10226C0004D10B494FF4F67001F02AFC019B1B685A
:10227C001F2B02D84FF0A04306E0019B1B6803F014
:10228C001F02019B1A60034B184603B05DF804FB58
:10229C00A4AB00000003005000B585B001900846C7
:1022AC0011461A4603468DF803300B468DF8023062
:1022BC0013468DF8013001AB1846FFF7C7FF0390AA
:1022CC009DF803209DF802305B001A439DF8013005
:1022DC009B001A439DF818301B0242EA03019DF83B
:1022EC001C301B04019A1943039B02F5E07243F85E
:1022FC00221000BF05B05DF804FB00B585B003905B
:10230C000023019300230093002301220121039851
:10231C00FFF7C2FF00BF05B05DF804FB00B585B048
:10232C0003900B468DF80B309DF80B300022019278
:10233C0000220092002200210398FFF7ADFF00BF9E
:10234C0005B05DF804FB00B585B003900023019344
:10235C00002300930023012200210398FFF79CFF28
:10236C0000BF05B05DF804FB00B585B0019001AB72
:10237C001846FFF76BFF0390019B012202FA03F34F
:10238C001946039800F004F800BF05B05DF804FB93
:10239C0082B001900091019B009AC3F8082500BF00
:1023AC0002B0704784B00190019B5B09029300233B
:1023BC000393029B002B03D0029B012B04D007E05C
:1023CC004FF0FF33039303E04FF6FF73039300BF0B
:1023DC00019B03F01F030193039A019B22FA03F361
:1023EC0003F00103002B14BF01230023DBB21846BA
:1023FC0004B0704700B583B001900091009B1B683E
:10240C00B3F1FF3F09D0009B1B681846FFF7ACFFE8
:10241C00009B1B681846FFF770FF009B5B68B3F1CD
:10242C00FF3F05D0009B5B6800211846FFF776FF45
:10243C00019B1A68009B9B6919461046FFF7FCFE2E
:10244C00019B1868009B597D009B1B7D1A46FFF76A
:10245C00DEFE019B1868009B1968009B5B681A469E
:10246C00FFF757FE009B1B7D012B22D1009B9B6825
:10247C00B3F1FF3F05D0009B9B6800211846FFF786
:10248C004DFF009BDB68B3F1FF3F09D0009BDB687D
:10249C001846FFF769FF009BDB681846FFF72DFF16
:1024AC00019B1868009BD968009B9B681A46FFF734
:1024BC006DFE00BF03B05DF804FB000000B583B0F7
:1024CC0001900B468DF80330019B1B684FF48E7105
:1024DC001846FFF7B3FD019B1B684FF4A271184619
:1024EC00FFF7ACFD019B1B680E491846FFF7CDFDAD
:1024FC00019B1B681846FFF75DFD03461A469DF8C5
:10250C00033019461046FFF75DFD019B1B6818460A
:10251C00FFF750FD03461846FFF774FD00BF03B0EC
:10252C005DF804FB8000020000B583B00190019BB4
:10253C001B6808491846FFF7C2FD019B1B6818462B
:10254C00FFF738FD03461846FFF76AFD00BF03B0DE
:10255C005DF804FB8402020000B587B00190019B7A
:10256C001B681846FFF7F2FD0590019B1B68184687
:10257C00FFF7F4FD0490019B1B681846FFF7F6FD6E
:10258C000390019B1B681846FFF7F8FD0290019B16
:10259C001B681846FFF7CCFD019B1B681846FFF71C
:1025AC0004FE059BB3F1FF3F02D00598FFF7CBFE6D
:1025BC00049BB3F1FF3F02D00498FFF7C4FE029BCB
:1025CC00B3F1FF3F02D00298FFF7BDFE039BB3F1BE
:1025DC00FF3F02D00398FFF7B6FE00BF07B05DF8CF
:1025EC0004FB000000B587B0039002910192029B9E
:1025FC00002B03D12D49AA2001F062FA039B1B7911
:10260C001A462C2302FB03F3294A13440493002398
:10261C000593049B93F82A30002B03D008230593D1
:10262C00059B3EE0039B1A68039B1B791946214BC3
:10263C0053F8213019461046FFF7F4FA0346002BE5
:10264C0003D011230593059B2BE002990398FFF708
:10265C00D1FE049B019A5A60029B1A69049B1A6072
:10266C00049B5B68002B05D0029B1B7F19460398CB
:10267C00FFF724FF039B1B681846FFF738FD049BEC
:10268C0000229A61049B0022DA61049B002283F8E9
:10269C002920049B00225A61049B012283F82A20E2
:1026AC00059B184607B05DF804FB00BFCCAB0000DF
:1026BC001C2D012044AC000000B585B00190019B9D
:1026CC001B791A462C2302FB03F3114A1344039380
:1026DC00019B1B681846FFF713FD039B5B68002BDF
:1026EC0002D00198FFF720FF0198FFF735FF019BFF
:1026FC001B681846FFF7D0FA039B002283F82A20A8
:10270C00039B00225A6000BF05B05DF804FB00BFBC
:10271C001C2D012000B585B0019000914FF48E71F5
:10272C000198FFF78BFC009B9A68009B1B6A134473
:10273C001B788DF80F30009B1B6A5A1C009B1A6289
:10274C009DF80F3019460198FFF746FD00BF05B004
:10275C005DF804FB00B585B001900091009B5B69AE
:10276C00039316E0009B93F82830DBB2002B01D0CA
:10277C00002314E04FF48E710198FFF774FC0346AC
:10278C0083F00103DBB2002BECD100990198FFF729
:10279C00C1FF009B1B6A039A9A42EBD8012318468F
:1027AC0005B05DF804FB000000B587B00390029102
:1027BC000192039B1B791A462C2302FB03F33C4A20
:1027CC0013440493049B93F82A30012B04D0394909
:1027DC004FF48C7001F074F9029B002B04D1354935
:1027EC0040F2191001F06CF9019B002B04D1314916
:1027FC004FF48D7001F064F9039800F05DF8034616
:10280C00002B03D011230593059B4CE0049B019AEC
:10281C005A61049B029A9A60049B00221A62049BE0
:10282C00002283F8282000230593039B1B684FF498
:10283C008E711846FFF702FC039B1B680821184693
:10284C00FFF7D7FC039B1B6804991846FFF762FF40
:10285C00049B5B68002B25D1039B1B6804991846CD
:10286C00FFF778FF034683F00103DBB2002B02D0A5
:10287C000F23059313E000BF039B1B684FF48E716D
:10288C001846FFF7F0FB034683F00103DBB2002B85
:10289C00F2D1039B1B680C211846FFF7AAFC049B82
:1028AC0000225A61059B184607B05DF804FB00BF77
:1028BC001C2D0120CCAB000082B00190019B1B7938
:1028CC001946074A2C2301FB03F3134414331B68EA
:1028DC00002B14BF01230023DBB2184602B0704753
:1028EC001C2D012010B582B001900091009B9B69BA
:1028FC00002B08D14FF484710198FFF79FFB0198CE
:10290C00FFF761FC13E04FF484710198FFF796FB1D
:10291C00009BDA68009B5B6AD4180198FFF753FCA4
:10292C0003462370009B5B6A5A1C009B5A6202B0E0
:10293C0010BD00B589B003900291019201238DF86E
:10294C001030029B0693019B0593039B5B68039AD3
:10295C00116804AA1046984700BF09B05DF804FB43
:10296C0000B587B00190009100238DF80830009BD2
:10297C000493019B9B680393019B00225A61019B6A
:10298C005B68019A116802AA1046984700BF07B00D
:10299C005DF804FB00B58BB0019000914FF4007111
:1029AC000198FFF77CFB0346002B39D04FF4927152
:1029BC000198FFF758FB0346002B31D04FF492716E
:1029CC000198FFF73BFB4FF401710198FFF777FB80
:1029DC00009B93F8293083F00103DBB2002B03D06A
:1029EC0004210198FFF705FC02238DF80C300198A7
:1029FC00FFF76FFB03460693009B9B690593009BB7
:102A0C00DB680493009B00229A61009B0022DA6130
:102A1C00009B5B68009A116803AA1046984752E025
:102A2C0004210198FFF73BFB0346002B4BD04FF4DE
:102A3C0084710198FFF717FB0346002B43D00099D4
:102A4C000198FFF74FFF009B9A69009B5B6A9A42C3
:102A5C0039D1009BDB69002B19D0009BDB680993F3
:102A6C00009B5B6A0893009BDA69009B9A61009B50
:102A7C001A69009BDA60009B0022DA61009B00223D
:102A8C005A62099A08990098FFF753FF1BE0009BC4
:102A9C0093F8293083F00103DBB2002B03D004211F
:102AAC000198FFF7A6FB4FF401710198FFF707FBA4
:102ABC00009B00229A61009B596A009BDB681A46B6
:102ACC000098FFF736FF4FF48E710198FFF7CBFAA1
:102ADC000346002B24D0009B5B690793009B1B6A69
:102AEC00079A9A420DD9009B93F82830DBB283F0F9
:102AFC000103DBB2002B04D000990198FFF70AFE0A
:102B0C000EE04FF48E710198FFF798FA009B5B6909
:102B1C00002B05D0009B5B6919460098FFF720FF3E
:102B2C004FF4A2710198FFF79EFA0346002B1CD0BC
:102B3C004FF4A2710198FFF781FA009B93F82930AA
:102B4C00002B03D000210198FFF753FB009B9B69DE
:102B5C00002B0AD0009B00229A61009B596A009BB3
:102B6C00DB681A460098FFF7E4FE00BF0BB05DF877
:102B7C0004FB000008B503490348FFF70BFF00BF37
:102B8C0008BD00BF1C2D01200020004082B0034670
:102B9C008DF807309DF90730002B0CDB9DF80730C2
:102BAC0003F01F0205499DF907305B09012000FA6B
:102BBC0002F241F8232000BF02B0704700E100E0B0
:102BCC0082B003468DF807309DF90730002B13DBDC
:102BDC009DF8073003F01F0209499DF907305B0986
:102BEC00012000FA02F2203341F82320BFF34F8F6B
:102BFC0000BFBFF36F8F00BF00BF02B0704700BFB4
:102C0C0000E100E082B0034600918DF807309DF999
:102C1C000730002B0ADB009BDAB20C499DF9073018
:102C2C005201D2B20B4483F800230BE0009BDAB2C2
:102C3C0007499DF8073003F00F03043B5201D2B251
:102C4C000B441A7600BF02B0704700BF00E100E0F1
:102C5C0000ED00E082B00190019B03F06043B3F102
:102C6C00005F0CBF01230023DBB2184602B0704793
:102C7C0082B00190019B1B0B5BB2184602B07047EF
:102C8C0000B583B003460A468DF8073013468DF81D
:102C9C0006309DF80630072B03D908496B2000F04D
:102CAC000FFF9DF806209DF9073011461846FFF7D7
:102CBC00A9FF00BF03B05DF804FB00BF48AC0000E7
:102CCC0000B583B003468DF807309DF907301846E0
:102CDC00FFF75CFF00BF03B05DF804FB00B583B0E9
:102CEC0003468DF807309DF907301846FFF768FF4B
:102CFC0000BF03B05DF804FB84B001900B46ADF847
:102D0C000230BDF80230019A134400221A60BDF85B
:102D1C000230019A13441B680393039B00BF04B059
:102D2C00704782B001900B46ADF80230BDF802300E
:102D3C00019A13441B68002B14BF01230023DBB240
:102D4C00184602B0704782B001900091019BD3F8F5
:102D5C000022009BDB431A40019BC3F8002200BFFA
:102D6C0002B0704782B001900091019B009AC3F8A9
:102D7C00042300BF02B0704782B001900091019B08
:102D8C00009AC3F8082300BF02B0704784B00190CA
:102D9C00019BD3F880340393019B039AC3F88024DE
:102DAC00039B184604B0704782B00190019B082227
:102DBC00C3F8002500BF02B0704782B00190019BA0
:102DCC000022C3F8002500BF02B0704784B0039006
:102DDC0002910192039B029AC3F80C25039B019A62
:102DEC00C3F8142500BF04B0704700B583B0019040
:102DFC004FF0FF324FF0FF310198FFF7E7FF00BFB4
:102E0C0003B05DF804FB82B00190019BD3F80C3544
:102E1C00184602B0704782B00190019BD3F814356C
:102E2C00184602B0704782B00190019BD3F8083568
:102E3C00184602B0704782B00190019BD3F8103550
:102E4C00184602B0704784B0039002910192039B24
:102E5C00029AC3F80825039B019AC3F8102500BFFA
:102E6C0004B0704700B583B001904FF0FF324FF0C3
:102E7C00FF310198FFF7E7FF00BF03B05DF804FBDB
:102E8C0082B001900B468DF803309DF80330019A07
:102E9C00134401221A6000BF02B0704782B0019047
:102EAC000B468DF8033013468DF802309DF8032045
:102EBC009DF802301343DBB21A46019BC3F86C2514
:102ECC0000BF02B0704782B001900091019B009A44
:102EDC00C3F8242500BF02B0704784B00390029160
:102EEC000192029A039BC3F84425039B019AC3F8F1
:102EFC00482500BF04B0704782B00190019BD3F805
:102F0C004C35184602B0704782B00190019BD3F843
:102F1C003C35184602B0704700B583B00190019B58
:102F2C001B68184600F0A4F80346002B04D10B498B
:102F3C004FF4F67000F0C4FD019B1B681F2B02D8E8
:102F4C004FF0A04306E0019B1B6803F01F02019B9E
:102F5C001A60034B184603B05DF804FB68AC000024
:102F6C000003005000B585B00190084611461A4682
:102F7C0003468DF803300B468DF8023013468DF85E
:102F8C00013001AB1846FFF7C7FF03909DF80320F3
:102F9C009DF802305B001A439DF801309B001A43E8
:102FAC009DF818301B0242EA03019DF81C301B04EB
:102FBC00019A1943039B02F5E07243F8221000BFFB
:102FCC0005B05DF804FB00B585B0039000230193B8
:102FDC00002300930023012201210398FFF7C2FF75
:102FEC0000BF05B05DF804FB00B585B003900B463F
:102FFC008DF80B309DF80B300022019200220092CC
:10300C00002200210398FFF7ADFF00BF05B05DF86B
:10301C0004FB00B585B003900023019300230093BB
:10302C000023012200210398FFF79CFF00BF05B08D
:10303C005DF804FB00B585B0019001AB1846FFF7B5
:10304C006BFF0390019B012202FA03F319460398CC
:10305C0000F004F800BF05B05DF804FB82B00190ED
:10306C000091019B009AC3F8082500BF02B070477D
:10307C0084B00190019B5B09029300230393029B94
:10308C00002B03D0029B012B04D007E04FF0FF3341
:10309C00039303E04FF6FF73039300BF019B03F010
:1030AC001F030193039A019B22FA03F303F001031C
:1030BC00002B14BF01230023DBB2184604B0704769
:1030CC0000B583B001900091009B1B68B3F1FF3FEA
:1030DC0009D0009B1B681846FFF7ACFF009B1B68D0
:1030EC001846FFF770FF009B5B68B3F1FF3F05D0FC
:1030FC00009B5B6800211846FFF776FF019B1A685E
:10310C00009B9B6919461046FFF7DDFE019B186872
:10311C00009B597D009B1B7D1A46FFF7BFFE019B50
:10312C001868009B1968009B5B681A46FFF74EFEF7
:10313C00009B1B7D012B22D1009B9B68B3F1FF3FB1
:10314C0005D0009B9B6800211846FFF74DFF009BA4
:10315C00DB68B3F1FF3F09D0009BDB681846FFF733
:10316C0069FF009BDB681846FFF72DFF019B186871
:10317C00009BD968009B9B681A46FFF764FE00BF52
:10318C0003B05DF804FB000000B583B001900B4662
:10319C008DF80330019B1B684FF488711846FFF7BC
:1031AC00ABFD019B1B684FF490711846FFF7A4FD13
:1031BC00019B1B684FF492711846FFF79DFD019B14
:1031CC001B684FF4A2711846FFF796FD019B1B6814
:1031DC004FF4AC711846FFF78FFD019B1B680F492C
:1031EC001846FFF7BFFD019B1B681846FFF740FD13
:1031FC0003461A469DF8033019461046FFF740FD6A
:10320C00019B1B681846FFF733FD03461846FFF772
:10321C0057FD00BF03B05DF804FB00BF1003420074
:10322C0000B583B00190019B1B6808491846FFF755
:10323C00A3FD019B1B681846FFF71AFD03461846B1
:10324C00FFF74CFD00BF03B05DF804FB1003420018
:10325C0000B587B00190019B1B681846FFF7D3FDA2
:10326C000590019B1B681846FFF7D5FD0490019B48
:10327C001B681846FFF7D7FD0390019B1B68184687
:10328C00FFF7D9FD0290019B1B681846FFF7ADFDB7
:10329C00019B1B681846FFF7E5FD059BB3F1FF3F4B
:1032AC0002D00598FFF7B5FE049BB3F1FF3F02D0A7
:1032BC000498FFF7AEFE029BB3F1FF3F02D00298D9
:1032CC00FFF7A7FE039BB3F1FF3F02D00398FFF774
:1032DC00A0FE00BF07B05DF804FB000000B587B08E
:1032EC00039002910192029B002B03D12B49CF201A
:1032FC0000F0E6FB039B1B791A461346DB001344D4
:10330C009B00274A1344049300230593049B93F8D2
:10331C002030002B03D008230593059B3AE0039B38
:10332C001A68039B1B7919461E4B53F8213019461A
:10333C001046FEF777FC0346002B03D011230593B0
:10334C00059B27E002990398FFF7BAFE049B019AAC
:10335C005A60029B1A69049B1A60049B5B68002BE1
:10336C0005D0029B1B7F19460398FFF70DFF039BAB
:10337C001B681846FFF718FD049B00229A61049BFA
:10338C000022DA61049B00225A61049B012283F81B
:10339C002020059B184607B05DF804FB90AC00009C
:1033AC00482D012008AD000000B585B00190019BAF
:1033BC001B791A461346DB0013449B002A4A13441C
:1033CC000393019B1B680293039B5B68002B02D049
:1033DC000198FFF725FF20210298FFF7B4FC039B0F
:1033EC009B69002B08D04FF4A2710298FFF784FC64
:1033FC0004210298FFF744FD4FF4AC710298FFF7DB
:10340C007BFC0C210298FFF73BFD00BF4FF4AC7125
:10341C000298FFF786FC034683F00103DBB2002B16
:10342C00F4D1039B9B69002B0AD04FF4A271029834
:10343C00FFF777FC034683F00103DBB2002BE5D1E9
:10344C000298FFF7BAFC0198FFF702FF0298FEF70B
:10345C0023FC039B002283F82020039B00225A604C
:10346C0000BF05B05DF804FB482D012000B589B004
:10347C00039002910192039B1B791A461346DB00C1
:10348C0013449B00574A13440593059B93F8203033
:10349C00012B04D0544940F2531000F011FB029B55
:1034AC00002B04D150494FF4AA7000F009FB019B8A
:1034BC00002B04D14C4940F2551000F001FB039B4A
:1034CC001B79002B03D1019BB3F5803F04D34649F4
:1034DC004FF4AB7000F0F4FA0298FFF7BBFB034615
:1034EC0083F00103DBB2002B03D010230793079B5F
:1034FC0073E0039800F07AF80346002B03D01123F5
:10350C000793079B69E0059B019A5A61059B029AF8
:10351C009A6000230793039B1B684FF49071184625
:10352C00FFF7EAFB039B1B684FF4AC711846FFF7DF
:10353C00E3FB039B1868059B9968059B5B691A461E
:10354C00FFF7CBFC039B1B6808211846FFF798FC80
:10355C00059B5B68002B3FD1039B1B684FF490715C
:10356C001846FFF7DEFB03468DF81B30039B1B68E8
:10357C004FF4AC711846FFF7D4FB03468DF81A30A4
:10358C009DF81B3083F00103DBB2002B06D09DF8B5
:10359C001A3083F00103DBB2002BDDD19DF81A3019
:1035AC00002B02D00F23079313E0039B1B680C2105
:1035BC001846FFF765FC00BF039B1B684FF4AC710A
:1035CC001846FFF7AEFB034683F00103DBB2002B7A
:1035DC00F2D1059B00225A61079B184609B05DF891
:1035EC0004FB00BF482D012090AC000082B001907C
:1035FC00019B1B791946084A0B46DB000B449B00C8
:10360C00134414331B68002B14BF01230023DBB2BB
:10361C00184602B0704700BF482D012000B589B094
:10362C0003900291019201238DF81030029B0693B6
:10363C00019B0593039B5B68039A116804AA1046CF
:10364C00984700BF09B05DF804FB00B587B0019046
:10365C00009100238DF80830009B0493019B9B681C
:10366C000393019B00225A61019B5B68019A1168CC
:10367C0002AA1046984700BF07B05DF804FB00B5DE
:10368C0089B0019000914FF492710198FFF749FBBA
:10369C000346002B22D04FF492710198FFF72CFBBC
:1036AC0002238DF808300198FFF770FB0346059351
:1036BC000198FFF729FC03460493009BDB680393F6
:1036CC00009B00229A61009B0022DA61009B5B68E0
:1036DC00009A116802AA104698473BE04FF4887193
:1036EC000198FFF71EFB0346002B33D04FF4887173
:1036FC000198FFF701FB0198FFF706FC0790009B70
:10370C009B69079A9A4225D1009BDB69002B17D045
:10371C00009BDB68069320210198FFF714FB009BAC
:10372C00DA69009B9A61009B1A69009BDA60009B26
:10373C000022DA61069A07990098FFF76FFF09E0FB
:10374C00009B00229A61009BDB681A46079900983F
:10375C00FFF764FF4FF4A2710198FFF7E2FA0346FA
:10376C00002B18D04FF4A2710198FFF7C5FA009BFB
:10377C009B69002B0FD0009B00229A61009B0022BA
:10378C00DA610198FFF7C0FB0146009BDB681A4623
:10379C000098FFF743FF4FF490710198FFF7C1FABF
:1037AC000346002B14D04FF490710198FFF7A4FA44
:1037BC000C210198FFF764FB009B5B69002B07D081
:1037CC000198FFF799FB034619460098FFF73DFF58
:1037DC004FF4AC710198FFF7A4FA0346002B10D0FC
:1037EC004FF4AC710198FFF787FA009B5B69002BD3
:1037FC0007D00198FFF780FB034619460098FFF7A6
:10380C0024FF00BF09B05DF804FB000008B50349B4
:10381C000348FFF734FF00BF08BD00BF482D01204F
:10382C000020004086B003900291019201238DF894
:10383C0017309DF81730204A039B13601E4A029BD9
:10384C0053601D4A019B9360039B44F20102934217
:10385C0012D0039B44F20202934220D1019B164AE0
:10386C00D360154BDB681B68134A9361124BDB6802
:10387C005B68114AD36112E0019B0F4A13610E4B36
:10388C001B699B680C4A53610B4B1B691B680A4AEA
:10389C009361094B1B695B68074AD36100BF72B621
:1038AC0000BF00BF9DF81730DBB2002BFAD162B617
:1038BC0000BF00BF06B070476C2D012000B583B06F
:1038CC0002900091019244F2010071466A4600F0A8
:1038DC0003F803B000BD00BF30B58BB00790069164
:1038EC00059272B600BF01F083FE01F0B1FC0346F5
:1038FC00002BFAD1079B44F20102934216D0079B8E
:10390C0044F2020293423ED1059B09932C4A2D4B63
:10391C00D31ADB081B0443F00100099B5B681A46B1
:10392C00099B1B68284901F056FC39E0059B08935C
:10393C00234A244BD31ADB081B0443F00104089BD5
:10394C009D68089B9B68184600F05CFF0346184670
:10395C00089B5B681946089B1B68069A02920193A8
:10396C00009103462A461949204601F048FC144AA6
:10397C00144BD31ADB081B0443F0010314491846FB
:10398C0001F00AFC0CE00E4A0E4BD31ADB081B04A8
:10399C0043F00103069A0F49184601F00BFC00BFD7
:1039AC000D4B1B6803F00103002B00D000BE059AE1
:1039BC0006990798FFF736FF00BF0BB030BD00BF6C
:1039CC002C5C0000045C000094AD0000B0AD000065
:1039DC00D8AD0000ECAD0000F0ED00E072B600BF19
:1039EC00034B1B680133024A136000BF704700BFD2
:1039FC008C2D0120064B1B68013B054A1360044BC0
:103A0C001B68002B01D162B600BF00BF704700BF1E
:103A1C008C2D012000B583B0019000F025F80346F1
:103A2C00012B03D00449432000F04AF8FFF7D6FFDE
:103A3C0000BF03B05DF804FB8CAE000000B583B092
:103A4C0003468DF8073000F00FF80346012B03D026
:103A5C000449512000F034F8FFF7CCFF00BF03B04D
:103A6C005DF804FB8CAE000084B0EFF3058301938A
:103A7C00019BC3F308030393039B002B0DD1EFF3BE
:103A8C0014830093009B0293029B03F00103002B11
:103A9C000CBF01230023DBB200E00123184604B065
:103AAC007047000008B5044B1B68044A12681046A6
:103ABC00984700BF08BD00BF902D0120942D012018
:103ACC0000B585B003460091ADF80630BDF8063060
:103ADC000293009B039302AB1A46002144F20200AE
:103AEC00FFF7FAFE00BF05B05DF804FB10B487B019
:103AFC0001900091019B009A53E8004F104643E857
:103B0C00000191F0000FF7D1059404900391059BEF
:103B1C00184607B05DF8044B704710B487B001909D
:103B2C000091019B009A53E8004F44EA020043E8DD
:103B3C00000191F0000FF6D1059404900391049BC1
:103B4C00184607B05DF8044B704710B487B001906D
:103B5C000091019B009A53E8004F04EA020043E8ED
:103B6C00000191F0000FF6D1059404900391059B90
:103B7C00184607B05DF8044B704710B487B001903D
:103B8C000091019B009A53E8004F04EB020043E8BC
:103B9C00000191F0000FF6D1059404900391049B61
:103BAC00184607B05DF8044B704710B487B001900D
:103BBC000091019B009A53E8004FA4EB020043E8EC
:103BCC00000191F0000FF6D1059404900391049B31
:103BDC00184607B05DF8044B704700B583B00190F0
:103BEC0001210198FFF799FF0346184603B05DF8D1
:103BFC0004FB00B583B0019000210198FFF7A5FFED
:103C0C000346184603B05DF804FB000000B583B012
:103C1C0001900B468DF80330019B002B03D1084912
:103C2C00E820FFF74DFF019BDA689DF803300199FE
:103C3C00098A01FB03F31344184603B05DF804FB37
:103C4C000CAF000000B583B001900091019B002BDC
:103C5C0003D10849F520FFF733FF009B019AD26886
:103C6C009B1A019A128AB3FBF2F3DBB2184603B02B
:103C7C005DF804FB0CAF000000B585B00190019B12
:103C8C00002B04D11C494FF49270FFF719FF00234D
:103C9C0003930020FFF7BEFE019B1B681A68019B73
:103CAC005B689A421FD9019B1B681A68013A1A601B
:103CBC001B681B7819460198FFF7A8FF0390019B1E
:103CCC009A68019B1B681B68D31A8DF80B30019BFB
:103CDC001B681B799DF80B209A4204D9019B1B6829
:103CEC009DF80B201A710020FFF7A8FE039B1846C5
:103CFC0005B05DF804FB00BF0CAF000010B584B03C
:103D0C0001900091019B002B04D1114940F2471006
:103D1C00FFF7D6FE009B002B04D10D494FF4A47085
:103D2C00FFF7CEFE009B03930020FFF773FE019B71
:103D3C001B681C68621C1A6003990198FFF782FFCC
:103D4C00034623700020FFF779FE00BF04B010BDBE
:103D5C000CAF000000B583B00190019B002B03D188
:103D6C000C493120FFF7ACFE019B9B68002B0CD05B
:103D7C00019B5B69019A1069019A1168019A92681A
:103D8C009847019B00229A6000E000BF03B05DF8E9
:103D9C0004FB00BF88AF00000EB400B584B00190E6
:103DAC00019B002B03D118494220FFF789FE019B90
:103DBC005B69002B03D114494320FFF781FE019B63
:103DCC001B68002B03D110494420FFF779FE019B9F
:103DDC005B68002B03D10C494520FFF771FE059B56
:103DEC00002B0AD00023039306AB039303AB1A46B4
:103DFC000599019800F0B8F900E000BF04B05DF837
:103E0C0004EB03B0704700BF88AF000000B583B06F
:103E1C0001900B468DF803309DF803300A2B03D12B
:103E2C000D210198FFF7F2FF019B1A68019B9B681B
:103E3C00581C0199886013449DF803201A70019B4B
:103E4C009A68019B5B689A4202D30198FFF782FF44
:103E5C0000BF03B05DF804FB00B587B0039002917E
:103E6C000192009300230593009B03F00103002BA8
:103E7C0024D00BE0029B01330293059B0133059385
:103E8C009DF8133019460398FFF7C0FF029B1B786F
:103E9C008DF813309DF81330002BEBD106E0019B0D
:103EAC00013B019320210398FFF7B0FF019A059B7A
:103EBC009A422ED9019B002BF1D12AE0029B002BB8
:103ECC000BD0029801F02CFE059006E0019B013B03
:103EDC00019320210398FFF799FF019A059B9A42C1
:103EEC000FD9019B002BF1D10BE0029B0133029304
:103EFC00059B013305939DF8133019460398FFF782
:103F0C0085FF029B1B788DF813309DF81330002B26
:103F1C00EBD100BF07B05DF804FB000000B589B021
:103F2C000390029101920093029B07930123069345
:103F3C0007E0079A019BB2FBF3F30793069B01334F
:103F4C000693079A019B9A42F3D2009A069B9A42D7
:103F5C0001D9009B06930B9B03F00103002B22D18C
:103F6C000A9B002B1FD00B9B03F00203002B06D0E7
:103F7C00009B002B03D130238DF8173002E0202357
:103F8C008DF8173008E00A9B013B0A939DF8173017
:103F9C0019460398FFF73AFF0A9B002B03D0069AA9
:103FAC000A9B9A42EFD301230793009B012B03D961
:103FBC00009B013B009309E0029A079BB2FBF3F3D1
:103FCC000493049A019B9A4200D205E0079B019A44
:103FDC0002FB03F30793E8E7029A079BB2FBF3F3A8
:103FEC000493049B079A02FB03F3029AD31A0293DD
:103FFC00154A049B13441B7819460398FFF706FFD8
:10400C00079A019BB2FBF3F30793079B002BE3D1B9
:10401C000B9B03F00103002B11D00A9B002B0ED03D
:10402C0006E00A9B013B0A9320210398FFF7EEFE62
:10403C000A9B002B03D0069A0A9B9A42F1D300BF2D
:10404C0009B05DF804FB00BF70B0000000B589B08A
:10405C000590049103920293049B002BB8BF5B4222
:10406C0006930123079307E0039B069A92FBF3F355
:10407C000693079B01330793039B069A9A42F3DA44
:10408C00029A079B9A4201D9029B07930A9B002B29
:10409C000AD0049B002B04DB0B9B03F00403002BC6
:1040AC0002D00A9B013B0A930B9B03F00203002BEB
:1040BC0002D0029B002B16D00B9B03F00103002BAC
:1040CC0011D10A9B002B0ED006E00A9B013B0A93F0
:1040DC0020210598FFF79AFE0A9B002B03D0079A24
:1040EC000A9B9A42F1D3049B002B07DA049B5B4298
:1040FC0004932D210598FFF789FE08E00B9B03F034
:10410C000403002B03D02B210598FFF77FFE0B9B9C
:10411C0003F00203002B19D00B9B03F00103002BBF
:10412C0014D1029B002B11D10A9B002B0ED006E060
:10413C000A9B013B0A9330210598FFF767FE0A9B07
:10414C00002B03D0079A0A9B9A42F1D304990B9B3C
:10415C0001930A9B0093029B039A0598FFF7DEFEDE
:10416C0000BF09B05DF804FB00B58FB00590049159
:10417C000392059B002B04D1AD4940F25220FFF76E
:10418C009FFC059B5B69002B04D1A9494FF415706A
:10419C00FFF796FC059B1B68002B04D1A44940F249
:1041AC005520FFF78DFC059B5B68002B04D1A049C3
:1041BC0040F25620FFF784FC049B002B00F0938107
:1041CC00049B1B788DF83730049B013304939DF8C6
:1041DC003730002B00F07E819DF83730252B40F0D6
:1041EC006D8100230A9301230C93049B1B788DF89B
:1041FC0037309DF83730302B0DD0302B1BDC2B2B70
:10420C0011D02D2B17D10A9B43F001030A93049B69
:10421C000133049312E00A9B43F002030A93049BBC
:10422C00013304930AE00A9B43F004030A93049BB2
:10423C000133049302E000230C9300BF0C9B002B72
:10424C00D3D1002309939DF837302A2B0CD1039B33
:10425C001B68191D039A11601B68099A1344099372
:10426C00049B013304931AE0049B1B788DF83730C0
:10427C009DF837302F2B12D99DF83730392B0ED8AB
:10428C00049B01330493099A13469B0013445B006F
:10429C001A469DF837301344303B0993D3E700237B
:1042AC000B93049B1B788DF837309DF837302E2BF1
:1042BC001DD1049B01330493049B1B788DF837307C
:1042CC009DF837302F2B12D99DF83730392B0ED85B
:1042DC00049B013304930B9A13469B0013445B001D
:1042EC001A469DF837301344303B0B93E4E7049B9C
:1042FC001B788DF837309DF837306C2B03D09DF838
:10430C003730682B07D1049B01330493049B1B7833
:10431C008DF83730EFE79DF83730252B00F0C4804F
:10432C00252BC0F2C680782B00F3C380582BC0F22B
:10433C00C080583B202B00F2BC8001A252F823F025
:10434C0041440000BF440000BF440000BF440000D3
:10435C00BF440000BF440000BF440000BF44000045
:10436C00BF440000BF440000BF440000D143000024
:10437C00F3430000BF440000BF440000BF440000F2
:10438C00BF440000F3430000BF440000BF440000E2
:10439C00BF440000BF440000BF440000BF44000005
:1043AC0081440000BF440000BF440000654400008D
:1043BC00BF44000017440000BF440000BF4400008D
:1043CC0041440000039B1B68191D039A11601B6874
:1043DC000C930C9B8DF81F309DF81F3019460598D7
:1043EC00FFF714FD66E0039B1B68191D039A11600F
:1043FC001B680C930A9B0193099B00930B9B0A224D
:10440C000C990598FFF722FE54E0039B1B68191DBD
:10441C00039A11601B680C930C990A9B0193099BDE
:10442C0000930B9B0A220598FFF778FD42E000BF32
:10443C00F8AF0000039B1B68191D039A11601B68E1
:10444C000C930C990A9B0193099B00930B9B1022D4
:10445C000598FFF763FD2DE0039B1B68191D039A5C
:10446C0011601B6808930A9B099A08990598FFF735
:10447C00F3FC1FE0039B1B68191D039A11601B685A
:10448C000C9330210598FFF7C1FC78210598FFF7B4
:10449C00BDFC0C99002301930823009308231022E0
:1044AC000598FFF73BFD05E025210598FFF7AEFCCD
:1044BC0000E000BF049B0133049305E09DF8373006
:1044CC0019460598FFF7A2FC049B1B78002B7FF480
:1044DC0077AE00E000BF059B1B7B002B04D005983A
:1044EC00FFF738FC00E000BF0FB05DF804FB00BF25
:1044FC0000B58BB001900091019B1B8A043B079384
:10450C00009A079B1344DA1C079BB2FBF3F38DF85C
:10451C001B300198FFF7B0FB0590059B002B01D1D8
:10452C00002338E0059B00221A71059B01225A7169
:10453C00079B9AB2059BDA80059B09939DF81B306B
:10454C00013B0493099B019A1A60002308931DE018
:10455C000198FFF791FB0390039B002B0ED0059B5A
:10456C005B790133DAB2059B5A71099B039A1A6085
:10457C00039B019A1A60039B099304E0059800F0D1
:10458C000EF8002307E0089B01330893089A049B5C
:10459C009A42DDD3059B18460BB05DF804FB00B5C1
:1045AC008BB00190019B0793079B5B798DF81B30B7
:1045BC00019B08939DF81B30013B05930023099345
:1045CC0005E0089B1B680893099B01330993099A22
:1045DC00059B9A42F5D3089B1B680493019B089397
:1045EC00002309930BE0089B1B680393089904981C
:1045FC00FFF784FB039B0893099B013309939DF8F8
:10460C001B30099A9A42EED300BF00BF0BB05DF885
:10461C0004FB00B585B00190019B0393039B04330D
:10462C0001211846FFF7A9FA00BF05B05DF804FB9D
:10463C0000B587B00190019B0593059B04330121C4
:10464C001846FFF7B2FA0346039303AB0493049B9B
:10465C001B78002B02D10198FFF7A1FF00BF07B018
:10466C005DF804FB00B591B00390029101920093A8
:10467C00039B002B03D14349B620FFF721FA039B80
:10468C000993039B0F93099BDB881A46099B5B7963
:10469C0002FB03F3043B0893009A089B9A4203D352
:1046AC003849C420FFF70CFA099BDB880793009B61
:1046BC001A1D079BB2FBF3F30E93009B0433079A6E
:1046CC00B3FBF2F2079901FB02F29B1A0D93019BCB
:1046DC001A68009B1344089A9A4203D2089A009BCA
:1046EC00D31A01E0019B1B680C93019B0C9A1A6076
:1046FC0005E00F9B1B680F930E9B013B0E930E9BCB
:10470C00002BF6D100230B93079A0D9BD31A0A9317
:10471C000A9A0C9B934228BF13460A932AE0029AEA
:10472C000B9B134406930F9A0D9B13440433059370
:10473C009DF84830002B05D00A9A0599069801F08F
:10474C001FFA04E00A9A0699059801F019FA002359
:10475C000D930F9B1B680F930C9A0A9BD31A0C9307
:10476C000B9A0A9B13440B93079A0C9B934228BFFA
:10477C0013460A930C9B002BD1D100BF00BF11B084
:10478C005DF804FB80B0000000B589B00590049181
:10479C0003920293039B079307AA00230093029BA7
:1047AC0004990598FFF75EFF079B039A9A4203D082
:1047BC000349F620FFF784F900BF09B05DF804FB4C
:1047CC0080B0000000B589B005900491039202936B
:1047DC00039B079307AA01230093029B0499059856
:1047EC00FFF740FF079B039A9A4204D004494FF409
:1047FC008070FFF765F900BF09B05DF804FB00BFDE
:10480C0080B0000000B585B00190019800F00EF862
:10481C000390039B002B01D0039B00E0024B184636
:10482C0005B05DF804FB00BF88B1000086B00190B4
:10483C00164B0593164B04931FE0049A059BD31A51
:10484C00DB10DA0F13445B10DB00059A134403935F
:10485C00039B1B680293029A019B9A4202D9039B09
:10486C0004930AE0029A019B9A4203D2039B0833F9
:10487C00059302E0039B5B6804E0059A049B9A4253
:10488C00DBD30023184606B0704700BF5CB50000B0
:10489C0074B6000000B5A1B0059004910392029388
:1048AC000498FFF7B6FE039B1593029B1693002307
:1048BC00179300238DF8603000231993229B1A93D1
:1048CC0000231F930FA91F9B0C220498FFF77AFF5C
:1048DC000C231F93119B1293BDF84030ADF84C3054
:1048EC00BDF84230ADF84E3000238DF851309DF8B4
:1048FC003C3003F00303DBB2012B26D10F9BC3F337
:10490C0095231C939DF83C30C3F3C203DBB28DF8A6
:10491C005030BDF83C30C3F38313DBB21B931B9BAD
:10492C009A0009A91F9B0498FFF74CFF1B9B9B0047
:10493C001F9A13441F9312AA09A915AB009313468F
:10494C001B9A1C9800F068FF2FE09DF83C3003F098
:10495C000303DBB2022B28D1BDF83E30C3F389131D
:10496C009BB21E939DF83C30C3F3C203DBB28DF8AF
:10497C0050301E9B082B28BF08231D9307A91F9B93
:10498C001D9A0498FFF71EFF1F9A1D9B13441F933B
:10499C001E9A1D9BD31A1E9315AB12AA07A81D991C
:1049AC0000F0DCFF1E9B002BE3D10498FFF740FEC8
:1049BC0000BF21B05DF804FB00B583B00190019BF2
:1049CC001B781A460C4B9B5C002B05D0019B0433C7
:1049DC001846FEF7E9FC0BE0019B1B781A46064BC8
:1049EC009B5C002B04D1019B0C331846FDF764FE35
:1049FC0000BF03B05DF804FB802C012000B587B02C
:104A0C000390029113468DF8073000230593039B06
:104A1C001B781A46114B9B5C002B09D0039B04336B
:104A2C009DF8072002991846FEF720FD05900FE02F
:104A3C00039B1B781A46094B9B5C002B08D1039BEC
:104A4C000C339DF8072002991846FDF7ADFE059032
:104A5C00059B184607B05DF804FB00BF802C0120B5
:104A6C0082B001900091034B01221A7000BF02B07A
:104A7C00704700BFDC2D012030B58DB003468DF89A
:104A8C0007301A4B02AC1D460FCD0FC495E80F0032
:104A9C0084E80F00062302934FF0FF3303934FF08B
:104AAC00FF3304934FF0FF3305934FF0EB730893F0
:104ABC009DF80730002B01D00D4A00E0002202AB1C
:104ACC0019460C48FCF768FD0B900B9B0A930A9B4C
:104ADC00002B04D0084A43210A98FEF7EFFE074A40
:104AEC009DF80730137000BF0DB030BDF8B6000054
:104AFC006D4A00000400002074B60000DD2D01207A
:104B0C0000B589B0039002910192019B8DF81F3082
:104B1C00124B00221A709DF81F301A460299104849
:104B2C00FFF76CFF0690069B0593059B002B04D0AA
:104B3C000C4A53210598FEF7C1FE00BF0A4B1B78A7
:104B4C00002B07D0054B1B78DBB283F00103DBB2E3
:104B5C00002BF3D100BF09B05DF804FBDC2D012064
:104B6C000400002074B60000DD2D012000B585B0D6
:104B7C0003900291054B00934023054A0299039838
:104B8C00FFF788FE00BF05B05DF804FB0D4B00007D
:104B9C009C2D012082B0019000BF02B07047000034
:104BAC0000B583B001900548FFF706FF0020FFF722
:104BBC0063FF00BF03B05DF804FB00BF04000020DE
:104BCC0000B583B001900091019B1B681B68009994
:104BDC000198984700BF03B05DF804FB00B583B0A3
:104BEC000190019B1B685B680198984700BF03B05C
:104BFC005DF804FB00B583B00190019B1B689B68BA
:104C0C000198984700BF03B05DF804FB82B0019097
:104C1C00019BDB6801225A7100BF02B0704782B061
:104C2C000190019BDB685B79184602B0704700006D
:104C3C00024A034BD31ADB08184670474C5C000041
:104C4C00045C000000B587B001900B468DF8033072
:104C5C009DF80330002B1FD0FFF7EAFF04900023D0
:104C6C00059313E0059B9B000E4A13440393039B8F
:104C7C001B881A46019B1B689A4204D1019B059A1A
:104C8C001A60002309E0059B01330593059A049BE8
:104C9C009A42E7D3052300E00023184607B05DF8DD
:104CAC0004FB00BF0000002000B585B001900B464E
:104CBC008DF803309DF8032001AB11461846FFF721
:104CCC00C1FF0346002B07D1019BDB00054A1344AF
:104CDC000393039B1B6800E00023184605B05DF8A6
:104CEC0004FB00BF045C000084B001900B468DF8FF
:104CFC000330019BDB00174A134402939DF80330E9
:104D0C00013B032B1CD801A252F823F0294D0000C3
:104D1C00314D0000394D0000434D000002238DF849
:104D2C000F3011E004238DF80F300DE0029B1B793E
:104D3C008DF80F3008E0029B5B798DF80F3003E0A3
:104D4C0000238DF80F3000BF9DF80F30184604B0CB
:104D5C00704700BF045C000084B0019000910023F8
:104D6C008DF80F30019B1B7803F00403DBB2002B92
:104D7C0024D0019B1B78C3F30103DBB2012B02D0BF
:104D8C00022B0CD017E0009B1B68019A1288C2F30F
:104D9C008312D2B21344DA1C009B1A600BE0009B06
:104DAC001B68019A5288C2F3891292B21344DA1C1E
:104DBC00009B1A6000BF01238DF80F309DF80F3057
:104DCC00184604B07047000000B58BB00023ADF856
:104DDC0026303E48FEF701FF3D48FEF7FEFE3D4BF8
:104DEC009B6804933C4B1B680693049A069B1340E8
:104DFC0002339B00374A13440433089304AB19461F
:104E0C000898FFF7A9FF0346002B09D0049A069BCC
:104E1C00134002339B002F4A134404330893EDE7ED
:104E2C0000BF0023079311E0049B5A1C0492069ABE
:104E3C001340079A920001A90A44264902339B00A9
:104E4C000B445B681360079B01330793079B022B92
:104E5C00EAD99DF80430C3F30103DBB2012B10D067
:104E6C00022B1CD1BDF80A30ADF82630BDF8063047
:104E7C00C3F389139BB203339A08049B1344049322
:104E8C0013E0BDF80A30ADF82630BDF80430C3F39A
:104E9C008313DBB21A46049B1344049305E00F49B9
:104EAC004FF4C270FEF70CFE00BF0948FEF7A1FEDE
:104EBC000590059B002B02D0049B064A9360BDF81D
:104ECC00263018460BB05DF804FB00BFC832012039
:104EDC00C4320120B02E012020000020C4B70000F5
:104EEC0000B585B000210748FEF700FE0390039B38
:104EFC000293029B83F310030193019B184605B0A8
:104F0C005DF804FBCC32012010B588B003900291FF
:104F1C0001920093039B1B0C0793FFF7E1FF069094
:104F2C00FFF786FE0246079B934204D3284940F2C2
:104F3C00A910FEF7C5FD069B1904009B5A1C0A9B81
:104F4C001340079A0A43234902339B000B445A60CF
:104F5C00204BD3F80C34009A911C0A9A01EA0204F3
:104F6C00984702461B49A31C9B000B445A60009AAD
:104F7C000A9B134002339B00164A134404330593D7
:104F8C00039B03F00703D9B2059A137861F3C503A9
:104F9C001370019B03F00F03D9B2059A138861F3C8
:104FAC0089131380029BC3F31501059A136861F3EF
:104FBC009F231360059A1378012161F30103137089
:104FCC00059A13786FF38203137000BF08B010BDFD
:104FDC00C4B70000B02E012000BF704700B58BB0E5
:104FEC000390029113468DF80730039B033308930B
:104FFC0001238DF81F300020FEF70CFD3E4B5A6844
:10500C00029B1A603D4B1A683B4B99683A4B5B68A4
:10501C00CB1A13440133099314E001213848FEF7ED
:10502C00ACFDFFF7D1FE059005993548FEF7A5FDBF
:10503C00324B1A68304B99682F4B5B68CB1A134470
:10504C0001330993089A099B9A42E6D89DF81F30C0
:10505C00002B48D0002304939DF80730002B17D069
:10506C009DF81030012262F301038DF810309DF889
:10507C00103043F004038DF81030039B03F00F0342
:10508C00DAB2BDF8103062F38913ADF8103016E0C7
:10509C009DF81030022262F301038DF810309DF858
:1050AC00103043F004038DF81030039BC3F3090355
:1050BC009AB2BDF8123062F38F13ADF812300E4B6A
:1050CC005A680E4B1B68134002339B000A4A134468
:1050DC0004330693049A069B1A60074B5A68089B84
:1050EC001344054A53600020FEF7A8FC9DF81F30BE
:1050FC0018460BB05DF804FBB02E012020000020F8
:10510C00CC32012000B58BB0059004910392029330
:10511C001F4B1B68079306AB012219460298FFF739
:10512C005DFF0346002B24D0069B03330993002319
:10513C00089311E0089B9B00039A1A44099B591C85
:10514C00099107990B401268124902339B000B44DA
:10515C005A60089B01330893089A029B9A42E9D340
:10516C00069A079B00931346029A04990598FFF739
:10517C00CBFE084B1B78002B04D000F069F80346DB
:10518C00002BFAD1FFF728FF00BF0BB05DF804FB32
:10519C0020000020B02E012000B583B001900091BA
:1051AC000023002200990198FFF7ACFF00BF03B069
:1051BC005DF804FB00B587B0039002910192019B4E
:1051CC00059305AA012302990398FFF79BFF00BFE3
:1051DC0007B05DF804FB00B587B003900291019213
:1051EC000093019B0493009B059304AA022302994C
:1051FC000398FFF787FF00BF07B05DF804FB00B50D
:10520C008BB00390029101920093019B0593009B3C
:10521C0006930C9B07930D9B08930E9B099305AA71
:10522C00052302990398FFF76DFF00BF0BB05DF8E3
:10523C0004FB0000054B9A68044B5B689A420CBF58
:10524C0001230023DBB21846704700BFB02E0120AB
:10525C0000B599B0FFF7EEFF0346002B01D00023F9
:10526C00B9E19B4B0022C3F81824BFF34F8F00BF4A
:10527C00974B9B680493974B1B681093049A109B55
:10528C00134002339B00924A1344043311930023BE
:10529C0017930023169300230F9304AB1946119810
:1052AC00FFF75AFD0346002B19D0894BD3F818345D
:1052BC00002B14D1864B5A68049B9A4205D8844B18
:1052CC005B68834A9360002385E1049A109B13402A
:1052DC0002339B007E4A134404331193DDE7002311
:1052EC00159311E0049B5A1C0492109A1340159AC2
:1052FC00920001A90A44764902339B000B445B6877
:10530C001360159B01331593159B022BEAD99DF85D
:10531C00043003F00303DBB2022B40F09C80BDF899
:10532C000630C3F389139BB20D93BDF80630C3F35B
:10533C0089139BB2502B28BF50239BB20C930C9B10
:10534C00C3F309039AB2BDF8063062F38F13ADF8BC
:10535C0006300C9B0C330B939DF80430C3F3C20343
:10536C00DBB20F930B995C48FFF7C2F81790179BB1
:10537C00002B00F0D3801798FFF74BF901A9169B6F
:10538C000C221798FFF700FA169B0C331693049B0C
:10539C00DA43109B134001339B000A930C9A0A9B2F
:1053AC009A4242D90A9B002B08D0049A109B1340B6
:1053BC0002339B00464A1344043300E0474B0893E6
:1053CC000A9B002B02D00A9BDBB201E00C9BDBB2E8
:1053DC008DF81F300A9B002B01D0404B00E00023BE
:1053EC0006930A9B002B06D00C9BDAB20A9BDBB20D
:1053FC00D31ADBB200E000238DF817309DF81F2084
:10540C00169B08991798FFF7BFF99DF81F30169A4D
:10541C0013441693069B002B16D09DF81720169B51
:10542C0006991798FFF7B0F90EE0049A109B1340F9
:10543C0002339B00264A134404330993169B0C9A9F
:10544C0009991798FFF7A0F90D9B03339A08049B51
:10545C001344049362E09DF8043003F00303DBB2C1
:10546C00012B5BD1BDF80430C3F38313DBB2062BE5
:10547C0028BF0623DAB2BDF8043062F38913ADF805
:10548C000430BDF80430C3F38313DBB203330E9343
:10549C009DF80430C3F3C203DBB20F930E9B9B0049
:1054AC0019460D48FFF724F81790179B002B35D0A1
:1054BC001798FFF7AEF801A9169B0C221798FFF767
:1054CC0063F9169B0C331693002315931DE000BF54
:1054DC00B02E0120200000205C5C0000BC2E0120BE
:1054EC00049B5A1C0492109A134002339B003C4AB2
:1054FC001344191D169B04221798FFF745F9169BA8
:10550C0004331693159B01331593BDF80430C3F384
:10551C008313DBB21A46159B9342E1D3179B002BE6
:10552C0039D02F4BD3F8103414932D4BD3F81834A7
:10553C00002B1BD01798FFF77BF846E000238DF863
:10554C004F301498FFF76BFB0346002B02D001235E
:10555C008DF84F309DF84F30002B03D017991498CD
:10556C00FFF72EFB149BDB681B681493149B002B1A
:10557C00E4D11798FFF75CF80020FEF74BFA184BB4
:10558C00D3F81834002B02D1049B154A93600020E9
:10559C00FEF754FA19E0124BD3F81034129306E0CC
:1055AC001298FFF727FB129BDB681B681293129B68
:1055BC00002BF5D10B4A0C4BD31ADB081B0443F020
:1055CC0002030A491846FFF7E7FDFFF733FE0346CF
:1055DC0083F00103DBB2184619B05DF804FB00BF81
:1055EC00B02E01202C5C0000045C000044B80000CC
:1055FC0000B583B00C4BD3F8103401930A4B012245
:10560C001A7009E00198FFF701FB0198FFF7E6FA21
:10561C00019BDB681B680193019B002BF2D100BF3F
:10562C0000BF03B05DF804FBB02E012000B58DB0B7
:10563C00059004912F4B1B68049AB2FBF3F304936F
:10564C002D4B1B68049AB2FBF3F30B930B9B2B4A69
:10565C00A2FB0323DB0A0A930A9B4FF4616202FB51
:10566C0003F30B9AD31A0B930B9B254AA2FB032330
:10567C005B090993099A13461B019B1A9B001A4656
:10568C000B9B9B1A0B931C4B1A68049BB3FBF2F1FC
:10569C0001FB02F29B1A0893089B4FF47A7203FBEE
:1056AC0002F2154B1B68B2FBF3F30793089B4FF404
:1056BC007A7203FB02F2104B1B68079901FB03F390
:1056CC00D31A4FF47A7203FB02F20B4B1B68B2FB3A
:1056DC00F3F30693069B0293079B01930B9B00939A
:1056EC00099B0A9A07490598FEF756FB00BF0DB0B7
:1056FC005DF804FBD4320120D0320120C5B3A29155
:10570C0089888888C0B8000010B584B003900291D5
:10571C00039BDB88002B0AD0039BDB881A461F4BAC
:10572C00009313461E4A1F490298FEF735FB039B54
:10573C001B7A052B2ED0039B5B7A002B12D0039B7C
:10574C009B881A46039B1B7A19461046FFF7CCFA26
:10575C0003461A46144B53F822301A461349029842
:10576C00FEF71AFB039B1B6819460298FFF75EFFB6
:10577C00039B1B7A1A460E4B53F82240039B9B88C3
:10578C0000211846FFF790FA034622460949029871
:10579C00FEF702FB00BF04B010BD00BF78B80000DC
:1057AC0088B80000DCB8000038000020F4B8000015
:1057BC0024000020F8B8000000B585B003900291D9
:1057CC0013468DF80730039B1B7A052B0FD0039BD8
:1057DC005B7A002B06D00D4B1B681A460C490298BD
:1057EC00FEF7DAFA0B490298FEF7D6FA07E09DF8B5
:1057FC000730002B03D007490298FEF7CDFA029828
:10580C00FEF7A8FA00BF05B05DF804FB38000020D5
:10581C00F4B8000004B9000030B58BB007900691C5
:10582C00059204930E9B1B7B8DF827300E9B002258
:10583C001A730E990498FFF767FF059B062B7FD808
:10584C0001A252F823F000BF715800007B580000F1
:10585C008B5800009F580000BD580000E558000010
:10586C001559000007990E98FEF796FA69E0069B09
:10587C001B681A4607990E98FEF78EFA61E0069B94
:10588C001A68069B04331B6807990E98FEF784FA76
:10589C0057E0069B1A68069B04331968069B08336D
:1058AC001B6800930B4607990E98FEF775FA48E0B3
:1058BC00069B1968069B04331868069B08331B6803
:1058CC00069A0C3212680192009303460A46079915
:1058DC000E98FEF761FA34E0069B1868069B0433B9
:1058EC001C68069B08331B68069A0C3212680699D2
:1058FC0010310968029101920093234602460799E0
:10590C000E98FEF749FA1CE0069B1C68069B0433B4
:10591C001D68069B08331B68069A0C3212680699A0
:10592C0010310968069814300068039002910192B6
:10593C0000932B46224607990E98FEF72DFA00E0AD
:10594C0000BF00220E990498FFF736FF0E9B9DF8BE
:10595C0027201A7300BF0BB030BD00BF00B587B055
:10596C000390029101920093029B082B60D8009B3C
:10597C001B7B8DF81330009B00221A730099019841
:10598C00FFF7C2FE0023059314E0059A029B9A428E
:10599C0009D2039A059B13441B781A462649009892
:1059AC00FEF7FAF903E025490098FEF7F5F9059B97
:1059BC0001330593059B072BE7D921490098FEF786
:1059CC00EBF90023059326E0059A029B9A421BD221
:1059DC00039A059B13441B788DF812309DF81230F6
:1059EC007E2B0AD89DF81230184600F05EF803465C
:1059FC00002B02D09DF8123000E02E231A461149DC
:105A0C000098FEF7C9F903E00F490098FEF7C4F9B6
:105A1C00059B01330593059B072BD5D901220099D2
:105A2C000198FFF7C9FE009B9DF813201A7300E044
:105A3C0000BF07B05DF804FB08B9000010B9000006
:105A4C0014B9000018B900001CB90000002A04BFEA
:105A5C00002070478446097848B2002844BF6FF094
:105A6C0001007047BCF1000F18BFCCF800100021EA
:105A7C00C3E90011002818BF012070477F298EBF91
:105A8C006FF0010001700120704743F2D822C2F27E
:105A9C0001021368002B02BF40F25C03C2F2000348
:105AAC0013605A689268126810470921FFF7EDBF1E
:105ABC007F2884BF002070474BF63432C0F20002BE
:105ACC00515C4BF6B422C0F20002105C08407047E7
